{
  "contractName": "ShardStore",
  "abi": [
    {
      "constant": false,
      "inputs": [
        {
          "name": "shardId",
          "type": "uint256[]"
        }
      ],
      "name": "confirmStorage",
      "outputs": [],
      "payable": false,
      "stateMutability": "nonpayable",
      "type": "function"
    },
    {
      "anonymous": false,
      "inputs": [
        {
          "indexed": false,
          "name": "trustedContact",
          "type": "address"
        },
        {
          "indexed": true,
          "name": "shardId",
          "type": "uint256"
        }
      ],
      "name": "StorageConfirmed",
      "type": "event"
    }
  ],
  "bytecode": "0x6060604052341561000f57600080fd5b6101678061001e6000396000f300606060405260043610610041576000357c0100000000000000000000000000000000000000000000000000000000900463ffffffff16806385133e0514610046575b600080fd5b341561005157600080fd5b61009e6004808035906020019082018035906020019080806020026020016040519081016040528093929190818152602001838360200280828437820191505050505050919050506100a0565b005b60008090505b81518110156101375781818151811015156100bd57fe5b906020019060200201517f038265b6201154bc86ad21e0d59b47de41d924dfa563cc5ee1faaefc047ad8ad33604051808273ffffffffffffffffffffffffffffffffffffffff1673ffffffffffffffffffffffffffffffffffffffff16815260200191505060405180910390a280806001019150506100a6565b50505600a165627a7a72305820d26607c68bab436e60d32f775af326da65eb084578da8832b6d9a8d9692b6e2f0029",
  "source": "pragma solidity ^0.4.18;\n\ncontract ShardStore {\n\n    event StorageConfirmed(\n        address trustedContact,\n        uint indexed shardId\n    );\n\n    function confirmStorage(uint[] shardId) public {\n        for(uint i = 0; i < shardId.length; i++){\n            StorageConfirmed(msg.sender, shardId[i]);\n        }\n    }\n\n    /* FUTURE WORK FOR EVALUATION\n    - Do we want to create a mapping of addresses that are allowed\n    to call confirmStorage? Right now a small attack vector exists\n    where a malicious actor could confirm storage of a particular\n    shardId even though the true user is not confirming that and may\n    no longer have the ID.\n    */\n    /*\n    - I think a better approach is for the client side to track which address\n    has previously confirmed an address and alert the user if a new address\n    claims the address. On the client side, the user can elect to trust or\n    distrust new adresses that are trying to confirm their shard ids - similar\n    to how the Signal messenger alerts users when their contacts safety numbers\n    change.\n\n    That said, I think being able to trust multiple addresses to confirm a\n    shard needs to be out of scope for the next 11 hours of the hackathon.\n    */\n}\n",
  "sourcePath": "/Users/nickneuman/ethdenver/ETHDenver/keysplit-dapp/solidity/contracts/shardstore.sol",
  "compiler": {
    "name": "solc",
    "version": "0.4.18+commit.9cf6e910.Emscripten.clang"
  },
  "schemaVersion": "1.0.1",
  "updatedAt": "2018-02-18T05:52:33.806Z"
}